:020000040800F2
:1000000010090020C1010008F5020008ED020008F7
:10001000F10200082D0200089D0400080000000005
:100020000000000000000000000000004103000884
:1000300031020008000000003D0300089903000899
:10004000DB010008DB010008DB010008DB01000820
:10005000DB010008DB010008DB010008DB01000810
:10006000DB010008DB010008DB010008DB01000800
:10007000DB010008DB010008DB010008DB010008F0
:10008000DB010008DB010008DB010008DB010008E0
:10009000DB010008DB010008DB010008DB010008D0
:1000A000DB010008DB010008DB010008DB010008C0
:1000B000DB010008DB010008DB010008DB010008B0
:1000C000DB010008DB010008DB010008DB010008A0
:1000D000DB010008DB010008DB010008DB01000890
:1000E000DB010008DB010008DB010008DB01000880
:1000F000DB010008DB010008DB010008DB01000870
:10010000DB010008DB010008DB010008DB0100085F
:10011000DB010008DB010008DB010008DB0100084F
:10012000DB010008DB010008DB010008DB0100083F
:10013000DB010008DB010008DB010008DB0100082F
:10014000DB010008DB010008DB010008DB0100081F
:10015000DB010008DB010008DB010008DB0100080F
:10016000DB010008DB010008DB010008DB010008FF
:10017000DB010008DB010008DB01000800000000D3
:10018000DB010008DB010008DB010008DB010008DF
:10019000DB010008DB010008DB01000800000000B3
:1001A000DB010008DB010008DB010008DFF80CD0F0
:1001B00000F02AF800480047D9090008100900207B
:1001C0000648804706480047FEE7FEE7FEE7FEE7F1
:1001D000FEE7FEE7FEE7FEE7FEE7FEE7A103000815
:1001E000AD010008D2B201E000F8012B491EFBD29C
:1001F00070470022F6E710B513460A460446194632
:10020000FFF7F0FF204610BD064C074D06E0E06802
:1002100040F0010394E8070098471034AC42F6D34D
:10022000FFF7C8FFB0530008D0530008FFE7FEE710
:100230007047000080B588B04FF4406000F0EEFBDE
:1002400040F6044000F0EAFB0020C4F202000390F4
:100250000122009220230593114600F0F9F9009A3B
:1002600041F20000C4F202000690102304931146EC
:1002700000F0EEF9009A059B0698114600F0E8F9A7
:10028000009A069840230793114600F0E1F903987D
:10029000059B002101910222029200F027FA0199A8
:1002A000029A049B069800F021FA0199029A059B94
:1002B000069800F01BFA0199029A0698079B00F035
:1002C00015FA0398059900F09FF90499069800F033
:1002D000A3F90599069800F097F90698079900F098
:1002E00093F900F04BFB08B080BD0000FFE7FEE78C
:1002F000FFE7FEE77047000082B08DF8070000912D
:100300009DF90700B0F1FF3F0CDCFFE7009800010A
:100310009DF8071001F00F014EF61452CEF20002C4
:10032000885409E0009800019DF907104EF2004240
:10033000CEF200028854FFE702B070477047000019
:100340007047000080B582B0009000980138B0F18D
:10035000807F03D3FFE70120019019E00098013866
:100360004EF21401CEF2000108604FF0FF300F2171
:10037000FFF7C2FF4EF21801CEF200010020086024
:100380004EF21002CEF20002072111600190FFE749
:10039000019802B080BD000080B500F0ABF880BDD0
:1003A00080B582B04EF68851CEF20001086840F464
:1003B0007000086043F60001C4F20201086840F0D2
:1003C00001000860FFE743F60000C4F20200006885
:1003D0008007002801D4FFE7F5E7FFE743F60801AF
:1003E000C4F20201086840F080000860002001901B
:1003F000FFE701984F2805D8FFE7FFE70198013094
:100400000190F6E743F60801C4F20201086840F0E3
:100410009000086000200190FFE701984F2805D860
:10042000FFE7FFE7019801300190F6E7FFE743F6A9
:100430000801C4F20201086820F00300086043F6D6
:100440000002C4F2020210684FF6FF73CFF6F663A3
:1004500018401060106820F48020106000200860B0
:10046000FFE743F60800C4F202000068012008B963
:10047000FFE7F6E743F60401C4F2020143F210007D
:10048000C2F20040086043F60C01C4F202010020F1
:10049000086000F085FB02B080BD0000FFE7FEE7CA
:1004A00081B0009000984FF47A71484340F20801FF
:1004B000C2F200010860FFE740F20800C2F200004B
:1004C000006808B1FFE7F7E701B0704781B000901E
:1004D000009840F20801C2F200010860FFE740F214
:1004E0000800C2F20000006808B1FFE7F7E701B0BA
:1004F0007047000040F20800C2F20000006840B1FE
:10050000FFE740F20801C2F2000108680138086004
:10051000FFE7704780B588B00790079801210691E2
:1005200000F02EFD07980021019100F01DFD0798B5
:1005300042F6B751C0F60001029100F0FDFC0199AE
:10054000079842F6D123C0F60003142200F084FC81
:100550000699079800F008FD079845F22C01C0F6AF
:10056000000100F0E9FC079842F6CF23C0F6000333
:100570001521082200F070FC0199079800F0F4FCA6
:100580000299079800F0D8FC079842F6D323C0F6EA
:10059000000333211E22039200F05EFC039A0798A9
:1005A00042F6D523C0F60003432100F055FC07981E
:1005B000022123222F23049300F08EFB049B079833
:1005C0000321242200F088FB07982D2120220C23F0
:1005D000059300F059FC059B07982E21212200F07D
:1005E00053FC079842F6E421C0F6000100F0A4FC99
:1005F0000699079842F6B623C0F60003362200F0AB
:100600002BFC08B080BD000082B0019000910098E2
:100610000199886202B0704782B001900091009801
:100620000199886102B0704783B0029001918DF802
:1006300003209DF8030020B1FFE70198029988612B
:1006400003E0019802998862FFE703B07047000059
:1006500087B0069005910492039306980068019074
:100660000698C06800900020ADF80A00FFE7BDF8CA
:100670000A000F2832D8FFE7BDF80A100398C840D7
:10068000C00720B3FFE7BDF80A004100032000FACD
:1006900001F20199914301910599BDF80A20520098
:1006A00001FA02F2019911430191BDF80A104900C3
:1006B00000FA01F10098884300900498BDF80A10F0
:1006C000490000FA01F1009808430090FFE7FFE7B6
:1006D000BDF80A000130ADF80A00C8E70198069994
:1006E000086000980699C86007B0704786B005900A
:1006F0008DF81310039202939DF81300012806D180
:10070000FFE7029A059948681043486005E0029A9D
:100710000599486890434860FFE705988068009015
:100720000020ADF80600FFE7BDF806000F2821D82D
:10073000FFE7BDF806100298C840C00798B1FFE770
:10074000BDF806004100032000FA01F1009888433B
:1007500000900398BDF80610490000FA01F10098D6
:1007600008430090FFE7FFE7BDF806000130ADF851
:100770000600D9E700980599886006B07047000028
:1007800080B582B0019001984C21002202F050F90E
:1007900002B080BD80B582B0019001984D21002249
:1007A00002F046F902B080BD80B582B00190019898
:1007B00001684A7B2D2102F03BF902B080BD0000A8
:1007C00080B582B0019001984C210122009202F084
:1007D0002FF9009A01984D2102F02AF90198FFF7AC
:1007E000E3FF02B080BD000080B582B001900198A7
:1007F00000F020F80198FFF7D7FF019800F00CF8FF
:10080000019800F017F80198FFF7CEFF0198FFF765
:10081000B7FF02B080BD000080B582B001900198A2
:100820004C21012202F004F90198FFF7BDFF02B04C
:1008300080BD000080B582B0019001984D21012259
:1008400002F0F6F802B080BD80B582B00190019848
:1008500090F8250050B1FFE70198FFF7EBFF0198F2
:10086000FFF7A2FF0198FFF7D7FFFFE70198FFF717
:10087000E1FF0198FFF78EFF0198FFF795FF0198C0
:10088000FFF77EFF0199012081F8250002B080BDAD
:1008900080B582B001900198FFF77CFF0198FFF7C7
:1008A00083FF0198FFF7B8FF0198FFF7C3FF019896
:1008B000FFF77AFF0199002081F8250002B080BD82
:1008C00080B582B001908DF803109DF8030020B12F
:1008D000FFE70198FFF7AEFF03E00198FFF75AFF2B
:1008E000FFE70198FFF760FF0198FFF795FF019878
:1008F000FFF746FF02B080BD80B582B001908DF851
:10090000031001989DF8031001F08001FFF7D8FF54
:1009100001989DF8031001F04001FFF7D1FF019805
:100920009DF8031001F02001FFF7CAFF01989DF820
:10093000031001F01001FFF7C3FF01989DF80310A9
:1009400001F00801FFF7BCFF01989DF8031001F0CA
:100950000401FFF7B5FF01989DF8031001F00201B3
:10096000FFF7AEFF01989DF8031001F00101FFF7BA
:10097000A7FF0198FFF738FF02B080BD80B586B0B1
:1009800040F60140009000F049F8009800F046F869
:1009900040F20040C4F202000290012203924FF4A0
:1009A000807301931146FFF753FE019B0298039950
:1009B00003220492FFF79AFE0298039A4FF4007301
:1009C00005931146FFF744FE02980399049A059B8C
:1009D000FFF78CFE06B080BD80B5A8B00020279040
:1009E00000F0E2F8FFF726FC64200190FFF758FDC5
:1009F00002A800F0F3F80198FFF752FDFFE702A804
:100A0000009000F009F90098FFF784FD009800F0CD
:100A100087FA4FF47A70FFF743FDF0E781B0ADF845
:100A20000200BDF8020000F01F02012101FA02F3EA
:100A3000810943F60002C4F2020288581843885024
:100A400001B0704783B000200290019043F600018E
:100A5000C4F20201086840F001000860FFE7029854
:100A60000130029043F60000C4F20200006800F07A
:100A700002000190FFE701990020009039B9FFE7DB
:100A80000298B0F5A06018BF01200090FFE7009821
:100A9000C0070028E3D1FFE743F60000C4F20200DC
:100AA00000688007002802D4FFE7FFE7FEE743F66F
:100AB0004001C4F20201086840F08050086047F22B
:100AC0000001C4F20001086840F44040086043F6A9
:100AD0000801C4F2020108680860086840F4004098
:100AE0000860086840F4A050086043F60401C4F2AE
:100AF000020147F61000C0F60020086043F600012E
:100B0000C4F20201086840F080700860FFE743F615
:100B10000000C4F2020000688001002801D4FFE751
:100B2000F5E747F20001C4F20001086840F48030A4
:100B30000860FFE747F20400C4F200000068C00349
:100B4000002801D4FFE7F5E747F20001C4F20001F5
:100B5000086840F400300860FFE747F20400C4F280
:100B6000000000688003002801D4FFE7F5E743F6A2
:100B70000801C4F20201086820F003000860086858
:100B800040F002000860FFE743F60800C4F20200EC
:100B900000680007002801D4FFE7F5E703B07047BD
:100BA00080B5FFF74FFF80BD80B540F20000C2F274
:100BB000000000684DF68361C4F21B31A0FB0110F8
:100BC000800CFFF7BFFB10B1FFE7FFE7FEE74FF038
:100BD000FF300021FFF790FB80BD000080B582B0A0
:100BE0000190019842F6D821C0F6000142F24D3240
:100BF000C0F6000242F6F103C0F6000300F02CFA42
:100C0000019801F0DFFA0198002101F0F3FA019850
:100C100000F002F802B080BD80B582B0019001986A
:100C20000068007C0090019890F8381000984843C4
:100C300000900098C00000900198406B0099FFF769
:100C4000D8FA02B080BD000080B584B00390ADF842
:100C50000A10ADF80820ADF80630039890F870003F
:100C60000146009103282CD80099DFE801F0020C1E
:100C700016200398C16D88470146BDF80800084456
:100C8000ADF808001DE00398C16D88470146BDF826
:100C90000A00401AADF80A0013E00398C16D8847B6
:100CA0000146BDF80800401AADF8080009E00398B5
:100CB000C16D88470146BDF80A000844ADF80A0036
:100CC000FFE70398BDF80A10BDF80820BDF806300C
:100CD00000F0A4FE04B080BD80B584B00390ADF8F0
:100CE0000A10ADF80820ADF806300398BDF80A10D8
:100CF000BDF80820BDF80630EE464FF0000CCEF8E7
:100D000000C000F003F804B080BD000010B584B04E
:100D100084460698CDF80CC0ADF80A10ADF808204E
:100D2000ADF806308DF80500039890F88C00002887
:100D300000F08F80FFE7BDF80600002800F08880F3
:100D4000FFE7BDF80600022826DBFFE79DF8050057
:100D500002280DD1FFE7BDF80610BDF80A00401AC1
:100D6000ADF80A00BDF80A000130ADF80A0012E043
:100D70009DF8050003280DD1FFE7BDF80610BDF86A
:100D80000800401AADF80800BDF808000130ADF8C1
:100D90000800FFE7FFE7FFE79DF8050000F001000E
:100DA0008DF805009DF8050008BBFFE7BDF80800B9
:100DB0000399B1F84C10884201DAFFE749E0BDF829
:100DC00008000399B1F84E10884201DBFFE740E0CC
:100DD0000398B0F84820B0F84A300DF10A000DF140
:100DE000060100F093FA08B9FFE732E01FE0BDF812
:100DF0000A000399B1F84810884201DAFFE728E0B9
:100E0000BDF80A000399B1F84A10884201DBFFE7F8
:100E10001FE00398B0F84C20B0F84E3002A80DF156
:100E2000060100F073FA08B9FFE712E0FFE7039844
:100E3000016BD1F808C0BDF80A10BDF80820BDF854
:100E400006309DF805E06C46C4F800E0E047FFE797
:100E5000FFE704B010BD000080B584B00390ADF88A
:100E60000A10ADF808200193039942F2A920C0F6B8
:100E7000000048600398BDF80A10BDF80820019BE7
:100E800000F002FB04B080BD80B584B00390ADF8E3
:100E90000A10ADF80820ADF806300398BDF80A1026
:100EA000BDF80820BDF80630EE464FF0010CCEF834
:100EB00000C0FFF72BFF04B080BD000080B584B0F8
:100EC00084460698CDF808C0ADF80610ADF80420A9
:100ED000ADF80230ADF800000299B1F84C00B1F85D
:100EE0004E10BDF80420BDF8003000F0A9FE20B976
:100EF000FFE700208DF80F000DE00299B1F84800DF
:100F0000B1F84A10BDF80620BDF8023000F098FE96
:100F10008DF80F00FFE79DF80F0004B080BD0000C2
:100F200080B582B00190019801F028F8019801F095
:100F300055F902B080BD000080B582B001900091EB
:100F40000198806D009988420CD0FFE700980199C4
:100F5000886501987430009900F092FF019800F0C4
:100F6000A5F8FFE702B080BD82B001908DF80310B4
:100F70009DF80300019981F8700002B070470000ED
:100F800082B001908DF803109DF80300019981F85B
:100F90006D0002B07047000081B00090009941F2EE
:100FA0006150C0F60000C86501B0704780B582B0DE
:100FB000019001990020A1F850000199A1F8540076
:100FC00001994FF6FF70A1F852000199A1F856005F
:100FD0000198016B4968884702B080BD80B586B032
:100FE000DDF820C0059004918DF80F20029305993B
:100FF0000020019088650299059AD1620499059AAA
:1010000051639DF80F10059A82F83810059981F800
:101010003900059981F86D00059981F891000599CD
:1010200081F88D000599012081F89200059981F8D9
:1010300093000898059908630598016B096888472B
:101040000598FFF7B3FF0598FFF7A6FF01980599EC
:1010500081F8700006B080BD80B588B00790069119
:10106000059204930798059B04996A46116042F221
:101070000171C0F6000142F22D52C0F6000201F0EB
:10108000C9F80DF10F0000F0EFFE029007980299E9
:101090009DF80F20069BEC46CCF8003041F6D1437A
:1010A000C0F60003FFF79AFF08B080BD81B0009042
:1010B0000098806D08B9FFE756E0009991F881002B
:1010C00081F88E00009991F8820081F88F000098D5
:1010D00090F88D0008B9FFE746E0009890F88D0081
:1010E00001281DD1FFE7009991F98E0091F9831035
:1010F000884206DAFFE7009991F8830081F88E00B4
:10110000FFE7009991F98F0091F98410884206DD7C
:10111000FFE7009991F8840081F88F00FFE722E053
:10112000009A92F98E0092F97E1092F98020114473
:10113000884209DAFFE7009991F87E0091F8802053
:10114000104481F88E00FFE7009991F98F0091F922
:101150008010884206DDFFE7009991F8800081F851
:101160008F00FFE7FFE7FFE701B0704783B0ADF8FE
:101170000A008DF809108DF808208DF807309DF8C9
:1011800007000146009140B1FFE7009801280CD00C
:10119000FFE70098022810D017E09DF90910BDF86C
:1011A0000A000844ADF80A0017E09DF90810BDF8E0
:1011B0000A00401AADF80A000FE09DF90910BDF8C9
:1011C0000A00401AADF80A0007E09DF90810BDF8C2
:1011D0000A000844ADF80A00FFE7BDF80A0003B0B2
:1011E0007047000083B0ADF80A008DF809108DF843
:1011F00008208DF807309DF807000146009140B1A6
:10120000FFE7009801280CD0FFE70098022810D0D3
:1012100017E09DF90810BDF80A000844ADF80A006F
:1012200017E09DF90910BDF80A000844ADF80A005E
:101230000FE09DF90810BDF80A00401AADF80A0049
:1012400007E09DF90910BDF80A00401AADF80A0040
:10125000FFE7BDF80A0003B07047000080B582B018
:1012600001900198B0F85010B0F85420B0F8523006
:10127000B0F856C0EE46CEF800C0FFF71FFE28B902
:10128000FFE70199002081F88C003CE001990120E2
:1012900081F88C000199B1F84800B1F850108842EB
:1012A00006DAFFE70199B1F85000A1F84800FFE71E
:1012B0000199B1F84A00B1F85210884206DDFFE703
:1012C0000199B1F85200A1F84A00FFE70199B1F87D
:1012D0004C00B1F85410884206DAFFE70199B1F8E2
:1012E0005400A1F84C00FFE70199B1F84E00B1F8A5
:1012F0005610884206DDFFE70199B1F85600A1F8C3
:101300004E00FFE7FFE702B080BD000085B003900C
:101310000291ADF80620ADF8043003980088ADF8CE
:101320000200BDF80200ADF8000002980188BDF887
:1013300000000844ADF80000BDF80200BDF8001040
:10134000884217DDFFE7BDF80200BDF804108842AF
:101350000ADAFFE7BDF80400ADF80000BDF80000B0
:101360000138ADF8000004E0BDF80600ADF8020059
:10137000FFE7FFE7BDF80200BDF80410884204DB78
:10138000FFE700208DF8130035E0BDF80000BDF840
:101390000610884204DCFFE700208DF813002AE0E5
:1013A000BDF80200BDF80610884205DAFFE7BDF877
:1013B0000600ADF80200FFE7BDF80000BDF804101C
:1013C000884205DDFFE7BDF80400ADF80000FFE747
:1013D000BDF8020003990880BDF80210BDF80000B6
:1013E000401AADF80000BDF8000002990880012005
:1013F0008DF81300FFE79DF8130005B0704700005B
:1014000010B584B084460698CDF80CC0ADF80A102B
:10141000ADF80820ADF806308DF805000398C18FAF
:10142000BDF80800401AADF808000398D0F82CC0A9
:10143000BDF80A10BDF80820BDF806309DF805E09B
:101440006C46C4F800E0E04704B010BD80B584B03D
:1014500084460698CDF80CC0ADF80A10ADF8082007
:10146000ADF806308DF805000398BDF80A10BDF8F8
:101470000820BDF806309DF805C0EE46CEF800C045
:10148000FFF7BEFF04B080BD80B586B00590ADF813
:101490001210ADF810200393059801F0F5FA002022
:1014A000ADF80600FFE70598426803990978904770
:1014B000ADF80A00BDF80A004FF6FF71884201D16D
:1014C000FFE749E0039801300390BDF80A004FF6AA
:1014D000FE7188423FD0FFE70598BDF81210BDF8B5
:1014E0001020BDF80A30FFF7AFFBADF808000598F3
:1014F00090F8700001460091032824D80099DFE895
:1015000001F0020A121ABDF80810BDF812000844D2
:10151000ADF8120017E0BDF80810BDF8100008443F
:10152000ADF810000FE0BDF80810BDF81200401A29
:10153000ADF8120007E0BDF80810BDF81000401A21
:10154000ADF81000FFE7BDF80810BDF8060008442C
:10155000ADF80600FFE7A6E7BDF8060006B080BDBF
:1015600081B00090002001B07047000080B582B0CB
:1015700001908DF8031001989DF8031000F01CF8FD
:101580008DF8020001208DF801009DF8030001385C
:101590008DF803009DF803109DF8010088408DF838
:1015A00001009DF801109DF80200401A8DF802001C
:1015B0009DF9020002B080BD83B002908DF8071043
:1015C0000298007B8DF805000298006800788DF87D
:1015D00006009DF805109DF80600C8408DF806002D
:1015E0009DF805008DF804009DF807109DF8040093
:1015F00008448DF804009DF80400082820DBFFE76C
:1016000008208DF803009DF805109DF80300401A8E
:101610008DF803000299086801300860029800689C
:1016200000789DF8031000FA01F19DF806000843C8
:101630008DF806009DF8040008388DF80400FFE7D7
:101640009DF8071001208840411E9DF806000840C3
:101650008DF806009DF80400029908739DF80600B5
:1016600003B0704780B58AB0089007910898603041
:1016700004900898079900F0B9FA089890F86B0060
:101680008DF816000498089991F87A10FFF76EFF0C
:101690008DF819000498089991F87B10FFF766FF00
:1016A0008DF818000498089991F87C10FFF75EFFF8
:1016B0008DF81700049890F90A000128C0F2F48010
:1016C000FFE7049B98889DF919109DF816209DF856
:1016D00018C0624452421B7C52B2FFF747FD049986
:1016E0008880049BD8889DF919109DF816209DF8D4
:1016F00018C0624452421B7C52B2FFF773FD04993A
:10170000C88004988088ADF80E000498C088ADF8B1
:101710000A00BDF80E00ADF80C00BDF80A00ADF8E7
:1017200008000498007C0146019103286CD80199B7
:10173000DFE801F002122C50049890F90A10BDF86D
:101740000C000844ADF80C009DF91610BDF8080017
:101750000844ADF8080057E09DF91610BDF80E00DA
:10176000401AADF80E00BDF80E000130ADF80E00C5
:10177000BDF80C000130ADF80C00049890F90A1087
:10178000BDF808000844ADF808003DE0049890F961
:101790000A10BDF80E00401AADF80E00BDF80E009C
:1017A0000130ADF80E00BDF80C000130ADF80C00B2
:1017B0009DF91610BDF80A00401AADF80A00BDF8F0
:1017C0000A000130ADF80A00BDF808000130ADF89C
:1017D000080019E09DF91610BDF80C000844ADF89A
:1017E0000C00049890F90A10BDF80A00401AADF8F0
:1017F0000A00BDF80A000130ADF80A00BDF8080083
:101800000130ADF80800FFE70898BDF80E10BDF8EC
:101810000A20BDF80C30BDF808C0EE46CEF800C076
:10182000FFF74CFB28B9FFE79DF817008DF827005C
:101830003FE004990020087204994872FFE7049879
:10184000089991F87610FFF7B7FE8DF81B00049801
:10185000089991F87710FFF7AFFE8DF81A00FFE7AF
:1018600008989DF81B10002200F028F808989DF8B1
:101870001A10012200F022F8FFE704980121FFF777
:101880009BFE0028ECD1FFE7049890F909009DF930
:101890001610884201DBFFE700E0D0E70498807B68
:1018A000089981F89200FFE79DF817008DF827004E
:1018B000FFE79DF927000AB080BD000080B586B023
:1018C00005908DF813108DF8122005986030019066
:1018D0009DF813008DF811000198007A8DF80E0024
:1018E0000198407A8DF80D00FFE70198807A8DF815
:1018F00010009DF80E109DF81000401A8DF8100091
:101900009DF810008DF80F009DF811009DF8101043
:10191000884205DAFFE79DF811008DF80F00FFE718
:1019200001988088ADF80A000198C088ADF80800D9
:10193000BDF80A009DF90E109DF90D20019B1B7C3E
:10194000FFF714FCADF80A00BDF808009DF90E1071
:101950009DF90D20019B1B7CFFF744FCADF80800AE
:101960009DF81200B0B1FFE70198807B059981F8DE
:1019700092000598BDF80A10BDF808209DF80F30B8
:10198000DDF804C09CF810C0EE46CEF800C0FFF7AA
:10199000BDF91AE00198407BB0B9FFE70198C07B20
:1019A000059981F892000598BDF80A10BDF8082045
:1019B0009DF80F30DDF804C09CF810C0EE46CEF85C
:1019C00000C0FFF7A3F9FFE7FFE79DF811009DF8BE
:1019D0001010884201DAFFE70FE09DF810109DF823
:1019E0001100401A8DF8110000208DF80E009DF8AE
:1019F0000D0001308DF80D0077E79DF811109DF86E
:101A00000E0008448DF80E009DF80E000199087232
:101A10009DF80D000199487206B080BD80B584B074
:101A20000390ADF80A10ADF80820ADF8063000209C
:101A3000ADF80400BDF80A000399A1F86400BDF8F0
:101A400008000399A1F866000398BDF8061000F09D
:101A50001DF80090009838B1FFE703980099FFF750
:101A600001FEADF80400FFE7BDF8040004B080BD3E
:101A700082B001908DF803109DF80310019808447E
:101A800001900198007802B07047000080B586B0E0
:101A90000490ADF80E100498806D029002981730F3
:101AA0000290BDF80E00FF2830DCFFE7BDF80E0005
:101AB000612807DBFFE70498B0F888100298084413
:101AC00002900CE0BDF80E00412807DBFFE7049808
:101AD000B0F88610029808440290FFE7FFE7FFE79E
:101AE0000298407808B9FFE70FE002980078BDF847
:101AF0000E10884204D1FFE702980230059051E0B1
:101B00000298417808440290EAE748E00498B0F867
:101B10008A1002980844029002980090FFE700980B
:101B2000002100F043F80146029808440290009812
:101B3000022100F03BF8ADF8060000980430009058
:101B4000FFE7BDF80600BDF80E108842E7DBFFE7AF
:101B5000FFE702980078ADF80600BDF80600000225
:101B6000ADF8060002984178BDF806000843ADF8CC
:101B70000600BDF8060008B9FFE70FE0BDF8060053
:101B8000BDF80E10884204D1FFE70298033005909B
:101B900008E00298817808440290DAE7FFE7002025
:101BA0000590FFE7059806B080BD000082B0019067
:101BB0008DF803109DF803100198084401900198D6
:101BC0000078ADF80000019801300190BDF80000E8
:101BD0000002ADF8000001980178BDF8000008444B
:101BE000ADF80000BDF8000002B0704780B584B0C9
:101BF0000390029103986030019002980199086067
:101C00000199002008730198039991F87810FFF763
:101C1000D3FC019988720198039991F87910FFF724
:101C2000CBFC0199C872039890F8920001998873CF
:101C30000199887BB0FA80F04009C87304B080BD78
:101C400083B0ADF80800ADF80610ADF80420ADF88B
:101C50000230BDF80400BDF8061088421ADAFFE72A
:101C6000BDF80200BDF80810884204DDFFE701203E
:101C70008DF80B0028E0BDF80400BDF80210884282
:101C800004DDFFE701208DF80B001DE000208DF83A
:101C90000B0019E0BDF80200BDF8081088420FDD06
:101CA000FFE7BDF80400BDF80210884204DDFFE73D
:101CB00001208DF80B0007E000208DF80B0003E0F9
:101CC00000208DF80B00FFE79DF80B0003B0704774
:101CD00080B586B084460898CDF814C0ADF81210CF
:101CE000ADF81020ADF80E308DF80D009DF8100005
:101CF0008DF803009DF8030000F007008DF8030045
:101D000001208DF802009DF803109DF80200884024
:101D10008DF8020000208DF801008DF80000059874
:101D200090F89200012805DCFFE79DF802008DF88D
:101D30000100FFE7059890F89200012805D0FFE721
:101D40009DF802008DF80000FFE7BDF81000ADF827
:101D50000A00BDF80A0020F00700ADF80A00059857
:101D60000068017CBDF80A004843ADF80A000598F8
:101D7000406B0190BDF80A10019808440190BDF82D
:101D800012100198084401909DF80D00E0B9FFE79A
:101D9000FFE79DF8012001990878104308709DF82D
:101DA0000020019908785040087001980130019096
:101DB000BDF80E000138ADF80E00FFE7BDF80E00CB
:101DC0000028E6D1FFE74CE0FFE79DF801200199EC
:101DD0000878104308709DF8002001990878504059
:101DE00008709DF8030001308DF803009DF8030092
:101DF00000F007008DF80300BDF80E000138ADF8C3
:101E00000E009DF80300D0B9FFE70598418F0198B7
:101E100008440190059890F89200012804DCFFE73F
:101E200001208DF80100FFE7059890F89200012845
:101E300004D0FFE701208DF80000FFE70AE09DF8DD
:101E4000010040008DF801009DF8000040008DF871
:101E50000000FFE7FFE7BDF80E000028B5D1FFE75F
:101E6000FFE706B080BD000081B00090009910200F
:101E7000087040F20C00C2F2000001B07047000090
:101E800080B582B00190009100980021FFF7F0FD2D
:101E90000199087000980121FFF7EAFD0199487047
:101EA00000980221FFF7E4FD019988700098032152
:101EB000FFF7DEFD0199C87000980421FFF7D8FDF7
:101EC0000199087100980521FFF7D2FD0199487129
:101ED00000980621FFF7CCFD019988710098072131
:101EE000FFF7C6FD0199C87100980821FFF7C0FDF2
:101EF0000199087200980921FFF7BAFD019948720B
:101F000000980A21FFF7B4FD0199887200980B210F
:101F1000FFF7AEFD0199C87200980C21FFF7A8FDEC
:101F20000199087300980D21FFF7A2FD01994873EC
:101F300000980E21FFF79CFD0199887300980F21EE
:101F4000FFF796FD0199C87300981021FFF790FDE7
:101F50000199087400981121FFF728FE0199488221
:101F600000981321FFF722FE01998882009815211D
:101F7000FFF71CFE0199C88202B080BD80B584B015
:101F8000039000208DF80B00039890F838008DF82E
:101F90000A00039890F839008DF80900039800684A
:101FA000407C8DF80800FFE703989DF80B109DF822
:101FB000092000F025F89DF80B0001308DF80B008A
:101FC0009DF8090001308DF80900FFE79DF80B101E
:101FD0009DF80A200020914201900ADAFFE79DF85F
:101FE00009109DF8082000209142B8BF01200190FF
:101FF000FFE70198C0070028D6D1FFE704B080BDF5
:1020000080B586B005908DF813108DF812200598D4
:102010000068007C8DF809009DF81300ADF80A00F7
:102020000598406B03909DF80910BDF80A004843DD
:10203000ADF80A00BDF80A00C000ADF80A00BDF80E
:102040000A1003980844039005989DF812209DF803
:1020500009300399EC46CCF80010002100F090F80C
:1020600006B080BD83B0029002980068019002988B
:1020700090F83800ADF80200BDF80200C000ADF8DD
:102080000200BDF80200029988870198007CADF833
:102090000200BDF80200C000ADF80200BDF8020069
:1020A00002994887029890F83900ADF80200BDF80F
:1020B0000200C000ADF80200BDF802000299C88716
:1020C000029890F83800ADF80200BDF802000299BD
:1020D00091F8391008440199497C884209DDFFE7ED
:1020E0000198407C029991F83910401AADF802002D
:1020F000FFE7BDF80200C000ADF802000299C88FEA
:10210000A1F840000299B1F84000A1F84200BDF8E2
:1021100002200299B1F842001044A1F8420001984F
:10212000808A0299A1F844000198C08A0299A1F816
:10213000460003B07047000080B582B0019001985E
:10214000FFF790FF02B080BD80B582B00190019989
:102150000020A1F848000199B1F84400A1F84A0014
:102160000199B1F84000A1F84C000199B1F8420082
:10217000A1F84E000198FFF771F802B080BD000091
:1021800080B584B0DDF818C003908DF80B108DF881
:102190000A208DF809309DF80B008DF805009DF898
:1021A0000A008DF806009DF809008DF804000698D5
:1021B00000900398D0F808C00F2101226B46E04739
:1021C00004B080BD80B582B001900198D0F808C0FD
:1021D0000A2100231A46E04702B080BD80B582B0D4
:1021E00001900198D0F808C0102100231A46E0475A
:1021F00002B080BD80B582B001908DF803100198C7
:10220000D0F808C09DF803200B210023E04702B05E
:1022100080BD000080B584B0DDF818C00390029145
:1022200001920093039800F011F8029803998860D6
:1022300001980399C860009803990861069803996A
:102240004861039800F024F804B080BD81B000908C
:10225000009900200860009A42F6DD01C0F60001F6
:102260009160009AD160009A1161009A51610099C1
:1022700081F82300009981F826000099886100996F
:10228000FF2081F82400009981F8280001B07047F0
:1022900080B582B001900198D0F808C009210023D0
:1022A0001A46E04702B080BD83B001908DF803105C
:1022B0009DF8030028B1FFE79DF803000A2805D127
:1022C000FFE74FF6FF70ADF80A0004E09DF8030049
:1022D000ADF80A00FFE7BDF80A0003B07047000040
:1022E00080B582B001900198D0F810C01921002368
:1022F0001A46E04702B080BD80B582B001908DF8EB
:102300000310019801210DF1030200F003F802B05F
:1023100080BD000080B584B003908DF80B10019251
:102320000398D0F810C09DF80B20019B1721E047BF
:1023300004B080BD80B582B001900198D0F810C083
:10234000182100231A46E04702B080BD80B586B050
:1023500004908DF80F108DF80E2002939DF80F0059
:102360001438014600910C2832D80099DFE801F0BA
:102370001E303007232C30303030303022000298AD
:102380000190FFE79DF80E0001280EDBFFE704989F
:1023900001990978FEF7B0FA0198013001909DF893
:1023A0000E0001388DF80E00ECE715E00498FEF7FA
:1023B00007FA11E010E00498FEF746FA049890F846
:1023C0002410FEF799FA07E00498FEF761FA03E09B
:1023D00000208DF8170003E001208DF81700FFE7BB
:1023E0009DF8170006B080BD80B582B001900198BD
:1023F000D0F80CC0192100231A46E04702B080BD76
:1024000080B582B001908DF803100198D0F80CC00F
:102410009DF8032016210023E04702B080BD000094
:1024200080B582B001908DF803100198D0F80CC0EF
:102430009DF8032015210023E04702B080BD000075
:1024400080B584B003908DF80B1001920398D0F8FA
:102450000CC09DF80B20019B1721E04704B080BD04
:1024600080B584B003900291FFE7029800788DF860
:1024700007000298013002909DF80710A1F11500A5
:10248000009102280DD3FFE7009817281AD0FFE724
:1024900000981838022823D3FFE70098FE2828D098
:1024A00035E0029800788DF806000398D0F80CC04B
:1024B0009DF807109DF806200023E04702980130A0
:1024C000029026E0029800788DF80600039801211A
:1024D0000DF10602FFF7B4FF02980130029018E0F8
:1024E0000398D0F80CC09DF8071000231A46E04767
:1024F0000FE0029800788DF8060003989DF80620FA
:10250000292100F095FA02980130029001E004B010
:1025100080BDAAE780B582B001900198D0F80CC0C8
:10252000182100231A46E04702B080BD80B586B06E
:1025300004908DF80F108DF80E2002939DF80F0077
:10254000143801460091052800F288800099DFE8E0
:1025500001F0550321276C7340F20C50C2F20000C9
:10256000007820B1FFE70498FFF7BAFEFFE7049870
:10257000FFF7E0FE04980021FFF7BEFE04989DF8E7
:102580000E10FFF7B9FE40F20C51C2F2000101201B
:10259000087067E004989DF80E10FFF7ADFE61E04B
:1025A00040F20C50C2F20000007820B1FFE704981E
:1025B000FFF796FEFFE702980190FFE79DF80E00F7
:1025C00019280EDBFFE70498019A182100F042FA5F
:1025D0009DF80E0018388DF80E0001981830019003
:1025E000ECE704989DF80E10019A00F033FA40F2DF
:1025F0000C51C2F200010020087033E0049890F8FA
:102600002400FF2805D1FFE70499782081F82400F1
:10261000FFE70498D0F810C09DF80F109DF80E2029
:10262000029BE0478DF8170020E040F20C51C2F207
:1026300000010020087015E040F20C50C2F20000CA
:10264000007820B1FFE70498FFF74AFEFFE740F269
:102650000C51C2F200010020087003E000208DF848
:10266000170003E001208DF81700FFE79DF8170021
:1026700006B080BD80B586B005900598D0F814C02E
:102680002821002301931A46E047019B0598D0F8C2
:102690000CC014211A46E04705984B2102910122F3
:1026A000039200F0C5F9059801680A79292104917F
:1026B00000F0BEF9019A0299059800F0B9F9049961
:1026C00005980268127900F0B3F90299039A059807
:1026D00000F0AEF9049905980268527900F0A8F963
:1026E00006B080BD82B00190009100980199086009
:1026F00001990868807C81F8220002B070470000D0
:1027000080B586B004908DF80F108DF80E200293DE
:1027100004989DF80F109DF80E20029B00F030F8F1
:1027200020B1FFE701208DF8170025E09DF80F008C
:102730000146019109280FD0FFE701980A2813D11B
:10274000FFE70498FFF796FF049845F25331C0F66F
:102750000001FFF785FE0BE0049845F29831C0F6C2
:102760000001FFF7BFFF03E000208DF8170003E032
:1027700001208DF81700FFE79DF8170006B080BD17
:1027800080B588B006908DF817108DF81620049348
:102790009DF817000B3801460191042800F2928041
:1027A0000199DFE801F0038F183747009DF8160004
:1027B00040B9FFE7069845F28E31C0F60001FFF7F9
:1027C0004FFE07E0069845F29331C0F60001FFF78F
:1027D00047FEFFE77AE09DF8160068B9FFE7069824
:1027E00045F28031C0F60001FFF73AFE069908680D
:1027F000807C81F822000CE0069845F28731C0F613
:102800000001FFF72DFE06990868C07C81F82200C0
:10281000FFE75BE00698FFF77DFE06988121FFF752
:10282000FFFD06989DF81610FFF7EAFD0698FFF7E2
:10283000DBFD4BE00698FFF76DFE049840798DF8BC
:102840000F009DF80F00C0008DF80F00069890F85B
:1028500022109DF80F0008448DF80F0006989DF88F
:102860000F1009091031FFF7DBFD06989DF80F10D6
:1028700001F00F01FFF7D4FD06980499897941F022
:10288000B001FFF7CDFDFFE7049800798DF80E0049
:1028900004980068029006989DF80E10C900029AEC
:1028A000C9B2FFF7CDFD9DF8160001388DF816006E
:1028B000FFE79DF816000028E6DCFFE70698FFF723
:1028C00093FD03E000208DF81F0003E001208DF848
:1028D0001F00FFE79DF81F0008B080BD83B0029085
:1028E0008DF807108DF806200093002003B0704784
:1028F00080B586B005908DF813108DF812200393E3
:102900009DF813002938014601912A2800F2888099
:102910000199DFE801F02B1816852F8585858585BF
:102920008585858585858585858585858585858557
:102930008585858585858585853352858571767BF9
:10294000800000BF71E00020ADF80A00FFE7BDF88D
:102950000A00B0F5A07F08DAFFE700BFFFE7BDF887
:102960000A000130ADF80A00F1E75EE00120FDF752
:1029700097FD5AE00120FDF7A9FD56E09DF81200F1
:1029800001280AD1FFE740F20040C4F202004FF4F0
:1029900080710122FDF748FE0EE09DF8120050B94B
:1029A000FFE740F20040C4F202004FF480710022C1
:1029B000FDF73AFEFFE7FFE737E09DF81200012838
:1029C0000AD1FFE740F20040C4F202004FF4007168
:1029D0000122FDF729FE0EE09DF8120050B9FFE735
:1029E00040F20040C4F202004FF400710022FDF7F3
:1029F0001BFEFFE7FFE718E00599002081F827009C
:102A000013E00599002081F827000EE005990020C9
:102A100081F8270009E00599002081F8270004E0EB
:102A20000599012081F82700FFE7012006B080BD4D
:102A300080B582B001908DF803108DF802200198C6
:102A4000D0F814C09DF803109DF802200023E04741
:102A500002B080BD80B584B003908DF80B10019258
:102A60000398FFF767FC03984021FFF745FC0398A4
:102A7000D0F810C09DF80B20019B1721E047039868
:102A8000FFF72EFC04B080BD81B0009000990020BB
:102A900081F8260001B0704702E008C8121F08C183
:102AA000002AFAD170477047002001E001C1121FCF
:102AB000002AFBD170476769746875622E636F6D79
:102AC0002F6F6C696B726175732F753867320038C0
:102AD0000055006700B200003921000849210008B4
:102AE0004D1400085F000202030302040404060000
:102AF000FF05FF05FF00E901D302B6200580CD00E8
:102B00002106E9C8AC00220693CB2415230AACC8E1
:102B1000A434541A2A012409B3C7A5A1474A0025A1
:102B200008ABC864D446012609ACC8C514AB9802EA
:102B30002705D1CB082807F2C7A966002908B2C724
:102B4000C45429002A07ABC8A46A352B08ABC8C5F2
:102B5000B462022C0692C729002D058BCA0C2E05E3
:102B6000C9C8042F07ABC85665043008ABC8554325
:102B700055003107ABC825590D3207ABC835531A7C
:102B80003308ABC8CC9417003408ABC824356201B5
:102B90003508ABC88CA817003607ABC84DD502372F
:102BA00008ABC8CC5446003807ABC8ADD6023907CD
:102BB000ABC8B5E4023A06E1C8C4003B07AAC76542
:102BC000A8003C07ABC8A6BA003D069BC9EC013E75
:102BD00007ABC8E4AA043F08ABC8E894610240060A
:102BE000ABC82D5B4108ABC85543A9004208ABC830
:102BF000A8B4D2024308ABC8553255004408ABC84C
:102C0000A8642D004508ABC88CA8E2004608ABC8F4
:102C10008CA862044708ABC8CDA492004808ABC892
:102C20002435940A4907ABC8AC580D4A07ABC8967F
:102C3000AA024B08ABC824B5920A4C07ABC8C4E63D
:102C4000004D08ABC8A431940A4E08ABC8AAA12411
:102C5000004F07ABC85556055008ABC8A8B462046E
:102C60005107B3C755561D5208ABC8A8B4920A53B2
:102C700007ABC8EDBC005407ABC8ACD8025507ABD6
:102C8000C824D7085608ABC8246BA4045708ABC89F
:102C90002435860A5808ABC824D552015908ABC858
:102CA000245556005A07ABC8CC540E5B06EAC8AC94
:102CB0004A5C07ABC8C45C065D06AAC8A86A5E0584
:102CC00093CB355F058BC70C6006D2CBC400610780
:102CD000A3C82D95046208ABC84495D4026306A32B
:102CE000C8CD2C6408ABC8A6A592006506A3C8553C
:102CF000536608ABC8A6B462026708ABC7AD241719
:102D0000006808ABC84495AC006908ABC86524D31B
:102D1000006A08B3C766582E006B08ABC8C4B492EB
:102D20000A6C07ABC8C8D6006D08A3C8A4A154009C
:102D30006E07A3C8A864056F07A3C855AA02700848
:102D4000ABC7A8B462047108ABC72D9564007208C4
:102D5000A3C8A41523007307A3C88DBC007408ABD7
:102D6000C8A51573007507A3C8242B097607A3C847
:102D700024AB027708A3C8243554007807A3C8A45D
:102D800032157908ABC72495E4027A07A3C8CC941E
:102D9000067B08B3C7A624EB007C06E9C80C017DBE
:102DA00009B3C7E4A8628A007E0794CB259500008A
:102DB000000004FFFF0000BF020504050601040631
:102DC000152600F918FA19F904E10AAE2258200B69
:102DD000D51CF587FFFF7F17002119D51CF58753F8
:102DE0002316588BF417879CFB0011689E0D920FD9
:102DF0002F002224D51CF58743A288450651641074
:102E0000450651641045065164104506516410454D
:102E100006F9F0FF13002343D51CF587EB838C35AF
:102E200006596390350659638C45C6380F8CF1C03E
:102E300018171A83AC31C81A83AC31C62263A007B5
:102E4000C478608C07C61964AC31C81A83AC3106EB
:102E50001B632C32C622637C78243BD51CF5875B30
:102E60002412689A520C91900C1144884304110169
:102E70001141560984654D6B892546425944904558
:102E80000431811041CA182490F240302EAD5622F0
:102E9000F56114002541D51CF587DBE410720A2981
:102EA0008810A204294490500A112410E3100A0447
:102EB0009D4016110412582015956AA81D3448210A
:102EC000810C524820831022C820848C44483985C4
:102ED00098F2E136002641D51CF587EBC621A654B1
:102EE0001144114212212411421221631141186A26
:102EF000C799861A0984884206114590420219A48E
:102F00002042CC21E494428C3145A4F2802869907F
:102F1000634AF8701B002710D51CF5875B42924866
:102F20007F1FFE7F06002823D51CF5877B2396672D
:102F30005C793548450A92487F9244124B24B18A05
:102F4000241A686289448A02002925D51CF587BDA8
:102F5000210BB46215492C9148122949227D9044D5
:102F60000A125820058BB35E8143860F0E002A2972
:102F7000D51CF5879F2591B6C6204398128628E474
:102F80000161DC2AD038C488208A0C920A218898F2
:102F9000A1C2111F7E14002B18D51CF5875F20914C
:102FA000BEF580200F08F2805024D2F7E177012C83
:102FB00015D51CF587FFFF9D110B34CFC012499C1E
:102FC000228963012D0ED51CF587FFCD67BE0FFF4B
:102FD00097002E11D51CF587FFFF2281E659907CC2
:102FE000B805002F29D51CF58783818E48411249E9
:102FF0001C91C4112948228124124822812412489C
:1030000022812412482281448E0FDB003043D51CDC
:10301000F587FBC5A5B592092591420E31C5105320
:103020000C29A610630A29231042C8108490310687
:1030300021648C41081183506114428E21A51862CD
:103040008A21A618724821C80493D64AAE7C7831EA
:1030500016D51CF58717C8330D2DC548202C101226
:10306000E9FFBF0F0F3221D51CF587F3C625C552E6
:1030700011E61043904024D2208904D25E05E92253
:1030800049C1FC3E9C063328D51CF587F3C525C5F0
:103090005211260953220D9276186AA8A558451A8E
:1030A0000A889C61C831C220A654331F5E00342FA9
:1030B000D51CF587474624B07AC65D6D04C248200A
:1030C0006C08B2C6206B0CA206218910924621E83A
:1030D00081501E08E581E048A4F7E13A003525D586
:1030E0001CF587D3EE788744BAB8144B0D9152CEB5
:1030F0003844924867C621861C624E38A7A5D5CCB5
:1031000087073635D51CF587FBC5A5B5920905950A
:103110002212892352C1A8861A32A39C52C8A10C3C
:1031200039C490430C39C4904319724821A988923C
:10313000D64AAE7C7801003721D51CF587D3EE78CE
:1031400071441247A4E288248E48C511A93822058B
:1031500049A42089E4C323003839D51CF587F3A698
:1031600029C552110591520E31E410430E3104115C
:1031700042521164298618094511421031141A86E9
:10318000205208228520528A21C708839852CD7C7C
:10319000783935D51CF587F3C5A5B5920925914237
:1031A0000E31E450861C62C821861C624A29A70C95
:1031B000731C6ACA0412A9382249A2905482416C35
:1031C000A5663E3C01003A16D51CF587FF1A81E63C
:1031D00059907C788940F32C483EDC023B1CD51C7E
:1031E000F587FF1A81E659907C7869C402CD33B027
:1031F0004412A748E29881013C1BD51CF5879F0A21
:1032000072C0E20EBBE70A34F08206DE6089648A8F
:103210000F0F023D1BD51CF587BFFD80200F08F264
:1032200080F830F880200F08F280F8F02F023E1965
:10323000D51CF5872F073A6481E8E17B5633EDB062
:103240003B671E89E2C3073F25D51CF58753A52997
:10325000C59011E6104390400405442205092CAFA7
:103260008254A43E240934CF82E4C3034043D51CD6
:10327000F587FBA629C59011E55085A451864164C8
:1032800010350659630C23C818A210328620858C8D
:10329000214821630842CA18A304338860648C451E
:1032A000C8288110224B3C8224A6163B1FAE034146
:1032B00038D51CF58717C21C728A051668DC08C34E
:1032C0008D301A09848D31D818449141D428433166
:1032D000D4903BE310430E3123114212214491312B
:1032E000161164910F9701423AD51CF587CB4B35E7
:1032F000E40E21C790530A41A410440A41A490430C
:103300000C21C7B8D3D033E49442102924114212BF
:10331000212411421221049142CA29CFB8C33E9CF4
:1033200007432AD51CF587FBA6A9D4CE11C61443A2
:103330004A418490240C8124D24F92486241E21485
:1033400043CC11E634A59AF9701E00443ED51CF515
:1033500087CB4B35E40E21C710530C39A510440A16
:1033600041A4904408498490440849849044084901
:103370008490440849A310440A41A490430C31C5E9
:1033800010624E432CA90F2F004522D51CF587CB88
:103390000F84F240280F8442227DD11DEF9048BF58
:1033A000F840280F84F240F8701A004616D51CF534
:1033B00087D3CF7C8644FA62431D2291FEFBF00C3A
:1033C000004732D51CF587FBC525D58E19E55085FC
:1033D000A061480A67447A0511521021051192082C
:1033E0002189148248218818728839C21C97143B9D
:1033F0001FCE034846D51CF587CB04914210290403
:1034000091421029049142102904914210290491FB
:103410004210290F84F240280F844210290491425F
:10342000102904914210290491421029049142105C
:103430002904914210F9701A004913D51CF587D35D
:103440000D758D44FAFFC71AEA3E1C074A1CD51CAD
:10345000F587EB2C718D44FAFF5430240D52501136
:1034600045AD955CF9F006004B40D51CF587C304CB
:1034700015421029E410431D520822842432882268
:10348000A22812CA4A0CB5C41223822C328822A365
:1034900024424822852052CA21A618728821A714E6
:1034A000820A21897C380D004C11D51CF587CB246C
:1034B000D2FFFFC567BE0FB7014D4ED51CF587C3C0
:1034C000630D4212212411524E21E514628A21A675
:1034D0001872C621671C42C2140821610A84105167
:1034E00004214414410819631042C61884101208BC
:1034F000950821891092082189109208218910923B
:103500000821897C380D004E4DD51CF587CB0491E0
:10351000421029E590520E29C690720A29A790827E
:103520000829240C420A09649042C418A4104115C9
:10353000328620850C124821640452084185945338
:103540008831851853C829859C5208228520524805
:103550001A1F4E034F3BD51CF587F3A629C59011C2
:10356000E610432152082284283288228328328898
:103570002283283288228328328822832842861A8E
:103580008520520822863A4618C4946AE6C303503E
:1035900029D51CF587CB2C35E40E29C690530A415A
:1035A000A410440A41A410440A39A59062CC33EE19
:1035B000B04422FDFBF00E005143D51CF587F3A665
:1035C00029C59011E610530A41A41044CA50641052
:1035D0004506516410450651641045065164104576
:1035E00006516410450841A410440C31152988295E
:1035F000D50E1C92C4D4903B1F3800523ED51CF50A
:1036000087CB2C35E40E21C790530A41A410440AFD
:1036100041A410440A39C490628C3B0DB14408495E
:103620008490440A41A410440C39C414430E31E47C
:103630009442102904950F97015330D51CF587FB50
:10364000A6A9D49011C614330E41E29048248906ED
:10365000A287DE8127124922314191221429039148
:1036600072C4310E31763E9C075416D51CF587C3C3
:103670000F08F280200F884522FDFFDF87170055D5
:1036800042D51CF587CB241142122124114212216C
:103690002411421221241142122124114212212408
:1036A000114212212411421221241142122124110B
:1036B0004212210495420E316698D3D262E7C37953
:1036C00000563BD51CF587C34491411419448D42E3
:1036D0001029041133D038E48C430C41C38C44CA04
:1036E00048841035C858648C450461438C46C268D0
:1036F000C899674112891C527C7802005752D51C28
:10370000F587BB848D31D818A38832C628838C41B5
:10371000C834283206354619A38851C62862942138
:103720008C188504234621615648106284618C18E8
:10373000411C23CC31A39C42CA29A49C420A1A668C
:10374000A461461A66A4614612487C380E005839B6
:10375000D51CF587C32491421031D42166244248F8
:1037600022642C22C8228134E4CC3390C0028D43E1
:103770000D3122C822822842482284206228440A2D
:10378000418410453E5C065929D51CF587C34491F8
:103790004112290491420E65C821852442482264C1
:1037A0002C22C8226234D4CE33AF44FAEFC30B00CC
:1037B0005A2ED51CF587CB0F84F240280F044822DF
:1037C00081542490C411092491402A1248E28804AB
:1037D000923858200F08F280200F880F97015B1451
:1037E000D51CF5873B2C718944FAFFFF224BDC87FF
:1037F0000A005C2BD51CF587BD11892491481289DC
:103800002491481289249148128924914812891CD4
:1038100092C8214924924422870C1F0E015D12D5C3
:103820001CF5872B0D7591FEFF7FA8F72103005E25
:1038300020D51CF5871784249140E3501B8130224A
:10384000C81A642842082266A870C287FF87015FF1
:1038500013D51CF587FFFF671F18E381311E181F62
:103860001A00601AD51CF5873B818A29E6902492BC
:1038700058C112899CE690E2C3FF4100612AD51C21
:10388000F5877FE1B0951A2AC2A48048A4123BCEE6
:103890003C530C290491424E29C498620432EFB87B
:1038A0005406F9701A006233D51CF5872324D24FD1
:1038B00014D5903B4718530C754A2188148248212F
:1038C000881482482188148248218798628831C3ED
:1038D00018774648688CF2E1016321D51CF5877F93
:1038E000C234A51832C2986228240C89F42489E5D0
:1038F000087444412DA9663E9C076435D51CF587A4
:103900008324D2A78A20A81D678C38869852082263
:10391000852052082285205208228520520822A59F
:103920001C628829C688731C6AAA08F2E134006503
:103930002CD51CF5877FC134A5582AC21C62C81932
:1039400088148248792094074279201412492C91D6
:10395000A0908C30A7A5D5CC87F300661CD51CF5AC
:103960008763A629C552110511231289546BA863D8
:1039700024D2FFFBF006006736D51CF587BF5FC871
:1039800038AF3C100A21E510331031E410430E2902
:1039900005155112534AA54562810EB9F30A4184B7
:1039A00090440849849C61CC3B6CA10E006836D5DC
:1039B0001CF5872B24D26F94440242EEA0508E292E
:1039C000C414431D62C821861C62C821861C62C8BB
:1039D00021861C62C821861C62C821861C62C821FF
:1039E0001F4E036919D51CF587534312582289E3EA
:1039F000838C1A16E9FF1A4BDC87E3006A1FD51C7B
:103A0000F58773231658C5F181554B8BF4FF53C1CD
:103A100090244A414594B45672E6036B35D51CF5A3
:103A2000872324D2EF94424C31A4944348416494B8
:103A3000440459241096B112C8228328324A22A481
:103A40002052CA21861C628A21A71482CA87CB0011
:103A50006C12D51CF5872B896591FEFFC7DCF13E02
:103A6000DC066D1DD51CF5873F4D0219A43C20C80E
:103A7000036394604219F4FFFFFFFFDF87CB006E02
:103A800035D51CF587BF4D46492420E40E0AE5983C
:103A9000424C31D421861C62C821861C62C8218612
:103AA0001C62C821861C62C821861C62C821861C33
:103AB000F2E136006F30D51CF5877FC1B4B41832FF
:103AC000C19C528A21871492082189109208218969
:103AD000109208218914728829861C134C622AB915
:103AE000F2E105007034D51CF587BF4D44510DB986
:103AF000738431C550A714824821881482482188D4
:103B00001482482188147288298698238C71A721F1
:103B1000228A2291DE0705007132D51CF587BF5F2E
:103B20000441ED3863C431C4944210290491421019
:103B30002904914210290491421031E410434C3180
:103B4000469CE350534590485F06721CD51CF58790
:103B5000BF4E464924A4F34C0AE418234E81059233
:103B600048FF7D7805007328D51CF5877FE1B09567
:103B7000DA31E21872C62128A012CF530E41138BFE
:103B8000118998814839C21C87D8421FCE03741D01
:103B9000D51CF58757492471C8A9B9E32D12E9BF8F
:103BA00022940964AD959AF9701C007535D51CF501
:103BB00087BF4D0E31E410430E31E410430E31E463
:103BC00010430E31E410430E31E410430E31E41083
:103BD000430E31A59463C2390E355504F9701B00AC
:103BE0007630D51CF5873F5DD228248D42103103F5
:103BF0008D43CE38C41044CA48A40C35C858648CD0
:103C0000450461248C869C79E69548E2F8F004002E
:103C10007743D51CF587BF4C16196391318A206410
:103C20000C42066D0C420619A38C51C4284318316E
:103C3000CA10468C428208438C428210230C638453
:103C40003946985386398594534841849034CCF84A
:103C5000701C00782FD51CF587BF4D1029C59043E7
:103C60000A4984104504592490769E790516681CEB
:103C70006244104506518410440C315521887C382B
:103C80000D007939D51CF587BF4D122104914210E2
:103C900031E41043CE40C31044CA5083104506514E
:103CA000640C460261240C37C270E715582089D491
:103CB0000A84AC21CA4A0CBDF2C1007A1DD51CF59C
:103CC000873FFECC07E9607915A4C1F2CA7B209436
:103CD000074279207C380D007B21D51CF587270E03
:103CE0004B4B29F348A40F12775C8126163924899F
:103CF000F48B059EA7586A28037C0ED51CF58753C4
:103D000024D2FFFFFFE7017D1FD51CF587D3C72510
:103D1000A6609124D227493CCF72E591487FB03804
:103D2000B3D44A0C7D007E17D51CF5877FF3145160
:103D30005628E301510641AE7CF87F0200A00BD566
:103D40001CF587FFFF7F1700A118D51CF5875304CA
:103D50009A6783E40334E414E91FAC17C78727008C
:103D6000A240D51CF58737482471C8018B4BAA9D0A
:103D7000129029828461C818231842C6088690A12F
:103D800008198A90A1C8208A0CA2C8188C8841C240
:103D900029610C815028A8A5C58E1B72F66101000F
:103DA000A32BD51CF587FBC5A5B592092495121444
:103DB00089144C2C73449248174724F09860561885
:103DC000E501418A5025A0F2E13800A429D51CF56F
:103DD000878F8B24CE3B2DAD540649E30C34CE4067
:103DE000E30C440A492594D4CE334314314E50E2B7
:103DF000C3BF0900A52FD51CF587C3441142102964
:103E00000411431D624622842442C6228230124697
:103E100043CE3C030973C7632412E68EC748A43E11
:103E2000BC0000A611D51CF5875324D2FFF701274B
:103E300091FE9F07A73AD51CF5874BA629C55211BD
:103E4000E610331031229158A281A82935C441844B
:103E500098430C39C4906308414CA986A089251267
:103E6000240E39C3147344414DA9663EE401A818D9
:103E7000D51CF587C541862AA2A4224A2AA2A841B8
:103E8000C687FFFF1500A948D51CF5875F284E2976
:103E9000864829860413082101053246506188119D
:103EA000081961881146196284498D30A911263597
:103EB000C208848831C2105418630415C61802055C
:103EC00042C620829462C8694A35F3E13C00AA25C3
:103ED000D51CF587F3C621A698208385421A5A4A35
:103EE000AD440849A3904446494C2D96BA3BDE8721
:103EF000BF0E00AB2ED51CF587FF5A30810D325412
:103F000011241541121924914112194415515411CB
:103F10004515515411451541D6208305133E7C08A3
:103F200000AC10D51CF587FF4BEE7891DE873F047F
:103F300000AD0ED51CF587FFCD67BE0FFF9700AE15
:103F400047D51CF5875F284E2986482946094246F1
:103F500048810C21C61862464618621A448C3044C7
:103F60001A230C91C608432032C2101319818431E0
:103F700086186384318618E390430822C50C739A2F
:103F800052CD7C380F00AF0ED51CF587E34B6D1F6B
:103F9000FEFF4700B01CD51CF587F3A625A65411DB
:103FA00025114212212415519462C8950FFF1F0458
:103FB000B120D51CF5876F91486F3D20C803823C26
:103FC000201489F4FBC03E20C803823C203E5C06DE
:103FD000B21ED51CF5874BC5A5B51419448D32E426
:103FE000880492573D02096489FBF0BF0A00B3219F
:103FF000D51CF5874BC5A5B5D620430E779C7947D0
:1040000012399430231142D25AC9950FFFCB00B414
:1040100014D51CF58789304924B0402A8E293EFCEE
:10402000FFEB00B53BD51CF5873F4D0E31E4104347
:104030000E31E410430E31E410430E31E410430E10
:1040400031E410430E31E410430E31A51421C409AC
:104050004B3C40C4124650641012E97D6000B64CDF
:10406000D51CF5874B0BB5E38C12A32C31CA12A3D8
:104070002C31CA12A32C318C12C328314E120321C9
:1040800031941183113118118311311811831131B9
:10409000181183113118118311311811831131183E
:1040A000118311311811E3431900B711D51CF5879D
:1040B000FF0D02CDB320F9F0BF0C00B813D51CF5ED
:1040C00087FFFFF7C524B1B031064BAE2000B9130E
:1040D000D51CF5875B031677B930869CFF3EFC2F15
:1040E00003BA2AD51CF587FBC521A6D62024114288
:1040F000D230230D33D230230D33D22824114294F1
:1041000062E8910F843BDE87BF0E00BB2ED51CF505
:1041100087FF5230810D32161165115116196491C5
:1041200041161924155150110515515011251151E1
:10413000D4208305133E7C0C00BC4ED51CF587BDF6
:1041400081C2296810830609629C81C61968188299
:10415000861969149246196A10A206196B0C124747
:1041600024714412472464A841482284A4414A1A75
:10417000438481C61861A021A643823243A842D05D
:1041800040210D393EA401BD4DD51CF587BD81C22E
:10419000296810730809629C8186216898918619A4
:1041A0006994A146196A10A206196B0C1247247172
:1041B00044124724A2A8214E1A6108728610649CFA
:1041C000818619689CE99042D0280491329428890C
:1041D000A50F6100BE4FD51CF587B9F25019458C6B
:1041E00051861A841C43C831832C22880965887142
:1041F000C420819824064281283246247144124703
:10420000247190A108196A1092C828690C83C810FB
:1042100061A0318418680855C65065A081041A72DF
:104220007C4803BF28D51CF5874B049A6741F201EF
:1042300027918204965741020B24914201112410C8
:1042400031E498701053AA950F2F00C03ED51C354D
:1042500017B23C04CB141F9C30879C6281051A372F
:10426000C270238C460261630C360651641035CA55
:10427000500C35E4CE38C49043CC48849044085167
:10428000648C450459E4C36500C13FD51CF5074162
:1042900040D35033507CB0C21C728A051668DC08CB
:1042A000C38D301A09848D31D818449141D42843E4
:1042B00031D4903BE310430E31231142122144913B
:1042C00031161164910F9701C243D51C750A7344CE
:1042D000D3D22AA12832C80A46C030879C62810501
:1042E0001A37C270238C460261630C360651641083
:1042F00035CA500C35E4CE38C49043CC4884904441
:104300000851648C450459E4C36500C342D51CB50B
:10431000210F8971DC2101A940CA073ACC21A75895
:104320006081C68D30DC08A39140D818838D41147C
:1043300019448D3214430DB9330E31E41033122178
:10434000241142141963114116F9701900C43FD5A4
:104350001C751E64A8224A2AA2A4228A1A647C50D0
:10436000C494248924966739D486186D08B28820AD
:104370006B90B1062189A586DA21861CCA0C440AF5
:1043800049A30C4506516490453E5C06C543D51CC7
:10439000351AB1BC218413433831841B61BC1287A8
:1043A0009CC5020B346E84E146186E04C2C6186CBC
:1043B0000CA2C8206A94A1186AC89D718821871828
:1043C0008248198910A206218A8CB1C887CB00C601
:1043D00039D51CF587F32C31D4D071A7A1360269E9
:1043E000231046026143103644324424334632637C
:1043F000104506515B62891092462188148248510B
:1044000062182586511F2E03C731D51CF587FBC5C1
:1044100025D5CE11C614434A418490240C8124D260
:104420004F92486241E21443CC11E634A59A896266
:104430009258D8188325573A00C826D51CB521D1E3
:10444000C003090DFF81501E08E5815048A42FBA12
:10445000E31D12E9171F08E581501E081F1E04C93D
:1044600026D51CB522EF30E4C807F781501E08E5B9
:10447000815048A42FBAE31D12E9171F08E58150A7
:104480001E081F1E04CA2DD51CB50A9240E3D02A6F
:1044900082AC41C60A27A4074279209407422191A1
:1044A000BEE88E7748A45F7C2094074279207C3850
:1044B0000D00CB2DD51C751E65A4320A2AA3A0328F
:1044C0004A1A65F4074279209407422191BEE88E8A
:1044D0007748A45F7C2094074279207C380D00CC7B
:1044E0001BD51CF5099344034F1C347C101AEA1A9F
:1044F00089F4FF8F35D47D380E00CD18D51CF51A00
:10450000EFB4E3C807B8A1AE9148FFFF5843DD8779
:104510002701CE1ED51C75129240D3D22A82284282
:10452000C60A27A886BA4622FDFF630D751F8E03B3
:10453000CF1ED51C751E65A4320A2AA3A0324A1AC2
:1045400065F886BA4622FDFF630D751F8E03D03BCA
:10455000D51CF587D36AB1D41019E790520E31C536
:1045600090430C39C410440A4164A442462A64A40E
:10457000422152082285A061C821861C62A8434AB4
:10458000396418D4D052EAC303D157D51CB521F0F1
:1045900088811A22E1A840CA079320520822A51C4C
:1045A00052CA21C518524E21E5145210218584416A
:1045B0004821810C528818831422A842C610A49066
:1045C000410229848C400A21A890720A31A6106306
:1045D0000A39A590530A41A410440A49E3C369006B
:1045E000D241D51C3517B2C003CB141F14D394622B
:1045F000C8087388A1102904114214194491411468
:1046000019449141141944914114194491411421C0
:10461000438D4210290411431D230C624A35F3E1F6
:1046200001D342D51CF50761C0E28E2B507C904C23
:10463000538A2123CC218642A4104408516410459A
:104640000651641045065164104506516410450634
:1046500051840C350A41A410440C758C308829D53E
:10466000CC8707D444D51C75129240E3922AA2A8A5
:1046700041C614CD34A51832C21C6228440A4184B4
:1046800010450651641045065164104506516410EA
:10469000450651641045C850A310440A41C450C790
:1046A00008839852CD7C78D544D51CB52924A41410
:1046B000C671688803C907D834A51832C21C62289D
:1046C000440A418410450651641045065164104562
:1046D00006516410450651641045C850A310440AA1
:1046E00041C450C708839852CD7C78D647D51C75F5
:1046F0001964A8224A2AA2A4228A1A647C804D53F3
:104700008A2123CC218642A4104408516410450616
:104710005164104506516410450651641045065118
:10472000840C350A41A410440C758C308829D5CCF2
:104730008707D729D51CF587DF0C731C8188218852
:10474000909288282BB5F3CA330EB112882AA2A002
:10475000420A1A86A480C487BF0400D84DD51CF530
:1047600087F130493262A076DA31C21C6228630ACE
:1047700031861033C220C408410629439041C8182D
:104780001419831A839041C6206410310A19448C8D
:10479000420609C38C720A29C610530A394698D3B7
:1047A00021224A22537C1807D948D51CF5097444A4
:1047B000034F1C347C9208218910920821891092A1
:1047C00008218910920821891092082189109208E5
:1047D00021891092082189109208218910920821BC
:1047E0008910824A21871833CC6969B1F3E13C0012
:1047F000DA48D51CF51AEFB4E3880C1F1092082193
:104800008910920821891092082189109208218923
:10481000109208218910920821891092082189108C
:1048200092082189109208218910824A2187183321
:10483000CC6969B1F3E15100DB4CD51C751AB1BCF0
:10484000D3922AA2A851C60C88244248228424422A
:104850004822842442482284244248228424424814
:10486000228424424822842442482284244248222A
:10487000842442482284A052C821C60C735A5AECA0
:104880007C380F00DC4DD51C759952190595515097
:1048900019258D323E9024114212212411421221F9
:1048A00024114212212411421221241142122124E6
:1048B00011421221241142122124114212212411E9
:1048C0004212210495420E316698D3D262E7C37931
:1048D00000DD30D51C350B923CD3CE23317C408893
:1048E000228324520822851CCA90430A498490449A
:1048F000C858449045C468A89D675E89F4DF87174F
:1049000000DE29D51CF587CB24D2C586DC798698B4
:1049100062082285205208228520520822851C62C6
:104920009E71A72112E97D780700DF46D51CF58727
:104930004BC5A5B592110591520C39C490430C3961
:10494000C410530C29E5107110110711910C31A6F8
:1049500010440A41859044084984904408498410D1
:10496000440A11429842823224A44384F9701E0002
:10497000E034D51CF5877E98239648248944121983
:104980003E3087ADD450112605442295D871E69962
:104990006248218814724A21C614239079C7A5322F
:1049A000C887D300E133D51CF5870931472CAF40C8
:1049B0002A92193E3887ADD450112605442295D845
:1049C00071E6996248218814724A21C614239079AD
:1049D000C7A532C887D300E239D51CF58705214722
:1049E0002CEFB8110823812C32080B457C300E5B6C
:1049F000A9A1224C0A88442AB1E3CC33C5904210C5
:104A000029E494428C294620F38E4B65900FA70130
:104A1000E334D51CF587C9F29018C7A1218E0AA4EA
:104A20007CA81DB6524345981410895462C79967F3
:104A30008A21852052C8298518538C40E61D97CAC3
:104A4000201F4E03E437D51CF5873BA38C54464109
:104A50006514544649A38C0FEE614A3554844901CC
:104A6000914825769C79A618520822859C52883157
:104A7000C50864DE71A90CF2E13400E537D51CF5F8
:104A800087FE80E609319C18C209319C89E3837D49
:104A9000D84A0D156152402452891D679E298614FB
:104AA000824821A714624C310299775C2A837C38B2
:104AB0000D00E63CD51CF5873F4F08392898F28059
:104AC0002024A0304A28840C45C850848CF2402011
:104AD0000F88F1C0106590440849849044482161D2
:104AE0001471C4180F0C72C431A5900FA701E72AE6
:104AF000D51CF5877FC234A5DA31E294728621484D
:104B00001812E94912CB11E888825A5AEC4031490F
:104B10002C4D10C192331C00E836D51CF5877E98C9
:104B200023964824894412193E30A629C55211E61D
:104B30001043CE40A41044CA03A13C10CA03A19064
:104B400048628904856484392DAD663E9C07E93549
:104B5000D51CF5878940472CAF402A12293E38A63C
:104B600029C55211E61043CE40A41044CA03A13C0B
:104B700010CA03A19048628904856484392DAD660A
:104B80003E9C07EA3AD51CF587BE982396771A6AA9
:104B9000439045065982880F88694AB1548439C4C4
:104BA000903310290491F240280F84F24028249277
:104BB0005822412119614E4BAB990FE701EB38D5D3
:104BC0001CF5873BA38C5446416514544649A38C7D
:104BD0000FAE694AB1544639E44C691492467920C3
:104BE0009407427920141289249120818C30A729BE
:104BF000D5CC87F300EC1CD51CF587908824569102
:104C00004812C70C1F14D4B048FFD758E23E3C09E5
:104C100000ED1BD51CF58798902412486081248EE6
:104C20000F326A58A4FF6B2C711F9E04EE20D51C16
:104C3000F5877E984312681C622410360661A188AD
:104C40000F026A58A4FF6B2C711F8E03EF1FD51C37
:104C5000F5873B830C5544494594544451838C0F4C
:104C60002A6A58A4FF6B2C711F8E03F039D51CF5EE
:104C700087C9010F094CB184D6526B0C22094B8AAB
:104C8000A1768C30A62AE41442122124114212216A
:104C900024114212212491420E31C5906382494C65
:104CA000A9663E3CF140D51CF587C5F2CE10A8217F
:104CB00012500AA57C289151120908B9834239A6DD
:104CC00010530C75882187187288218718728821E3
:104CD000871872882187187288218718728821871F
:104CE0007CB80D00F239D51CF587BC90235691484D
:104CF00012890C1F1CD3D262C804734A29861C5225
:104D0000482284244248228424424822842452C8CF
:104D100021A618724C3089A9E4CA871700F339D547
:104D20001CF5870531472C90820592193E40A6A5B7
:104D3000C59009E694520C39A490440849849044E3
:104D400008498490440849A490434C31E498601287
:104D500053C9950F2F00F43FD51CF587BE902396BD
:104D600077DC0884914016198485223E20A6A5C5CB
:104D70009009E694520C39A4904408498490440860
:104D8000498490440849A490434C31E498601253FC
:104D9000C9950F2F00F539D51CF587C5F29010C8BD
:104DA0009D31CE2B1F72A6A5C59009E694520C39F1
:104DB000A49044084984904408498490440849A434
:104DC00090434C31E498601253C9950F2F00F63D83
:104DD000D51CF58733A38C5446416514544649A32A
:104DE0008C0FB0696931648239A514430E292411EE
:104DF00042122124114212212411421229E410539B
:104E00000C392698C45472E5C30B00F71AD51CF56B
:104E1000871F16924422C507F799EF434E4812891F
:104E2000141F7E1700F83FD51CF587DF1693ACA43E
:104E30005662C80473CA3886901146216408420835
:104E400019821032C620840832082162102A1042CA
:104E5000CA0883106348392698C4D052239445A4C5
:104E6000F8300E00F93FD51CF587928825124922AB
:104E700091448A193E10E410430E31E410430E3180
:104E8000E410430E31E410430E31E410430E31E4DC
:104E900010430E31E410534A39269CE35053459099
:104EA0000F2F02FA3CD51CF587969804164893E319
:104EB000834B0E31E410430E31E410430E31E41005
:104EC000430E31E410430E31E410430E31E410433D
:104ED0000E31A59463C2390E355504F9F02200FB5A
:104EE00043D51CF587BE90041668DC08841131D8C0
:104EF000188485123E39C490430C39C490430C3950
:104F0000C490430C39C490430C39C490430C39C449
:104F100090430C39C494528E09E738D45411E4C339
:104F20006D00FC42D51CF58733A38C5446416514B3
:104F3000544649A38C0F2639C490430C39C490437E
:104F40000C39C490430C39C490430C39C490430CC1
:104F500039C490430C39C494528E09E738D45411A3
:104F6000E4C36D00FD43D51CF5879890241248607A
:104F700081248E0F2E498410440A41C490430C3979
:104F8000030D431029430D4214194491311809842B
:104F90009130DC08C39D57608124522B10B28628C3
:104FA0002B31F4CA071800FE35D51CF5872324D20F
:104FB0004F14D5903B4718530C754A2188148248EA
:104FC0002188148248218814824821879862883970
:104FD000C218771A22A22812E97D5000FF48D51C7A
:104FE000F5873B830C5544494594544451838C0FB9
:104FF0002649A310440C39C49033D0300491421098
:1050000029430D421419648D311809A48D30DC0830
:10501000C39D576089438E489620838D505662E821
:10502000950F060000000004FFFF000012020504B7
:105030000506010406182700F81EF81EF7000000F8
:1050400000030A200BF80CF887FFFFFFCF002A317E
:10505000F80CF8870F964928D582216D10524431FB
:10506000828C421E28E481729C331141F48820AD69
:1050700088B20A29A998828A2969A0F1E19F032BA5
:105080001BF80CF88777CBAC6F3D50C803853C50BC
:10509000C8038595597F1FFE49002C18F80CF88726
:1050A000FFFF6B641A79E225CD2C935032293A6CBC
:1050B00070002D16F80CF887FFFA03C33C30CC03C0
:1050C000C33C303EFCFF2D002E12F80CF887FFFF8A
:1050D00073831679E2250B1D1F1E2F2FF80C781CE9
:1050E00095CC32C9AC649945965964994596592630
:1050F0009965925926996592592699952CB3C8328B
:105100008B2CB34C62C5876700304DF80CF807DA7A
:10511000C4D4D872CA08938A29A89872CA31A61C26
:1051200063C839A598444A21A190528628A4102228
:105130000A29838C42CA18A412A314520229852476
:1051400053CA39A598538C39B5634A496698E41611
:105150007329960FDF033119F80CF8079C48039167
:10516000538CB5124A13A4CCFAFFFF3E7C0F0032D9
:105170002FF80CF807DA40C59A7AA990732A3452AE
:10518000492195599B641659A489562CB2DE24B343
:10519000C80786796098078679607CF812003336F4
:1051A000F80CF807DA40C55C7A2024528C12A7D09C
:1051B00032CB24B344D3944B4FB925CF2CB4CC5A23
:1051C0000AA920910A1AA7A042CE792024C7D63B6B
:1051D0001FBE07003435F80CF8079FCC4A9A784177
:1051E000F49223A138124A23A230320A23A32C427C
:1051F0008A22A528524A22A6A0070A79A090070A67
:1052000079A0BC32EBF7E163003538F80CF807F50C
:1052100001711E10E701711E10A7CCBAC998532F57
:105220003D109021069163524885125A660D05453E
:10523000CE48C59463CC21063D10925BEB9D0FDFF9
:10524000033642F80CF807DC40C59A7AE81092CA97
:1052500011A9CC32C92CC2AC971E08E80171D0301C
:10526000C79C620A2AA624624A2AA5A4524A2AA5F1
:10527000A4624822A73AC6146486514EB5A6A0F986
:10528000F03900372DF80CF807F481611E18E6811B
:10529000611E18B2CC22CB2CB2CC32C9AC64996559
:1052A0009259C932CB24B3926556B2CCEAC33701C6
:1052B0003840F80CF807DB40C59A7AC90C938A2964
:1052C000A73E540C49A514654461CB25B758112756
:1052D00095525039E590444C49A594544A49A594B7
:1052E000548A39C69862CE032139B6DEF9F0390006
:1052F0003941F80CF807DA40D5D872C910838A29E9
:10530000A7A0620A2AA624624A22A624624A2AA6E2
:105310001C630C41E701711E102985B28C20949A00
:10532000550AA8A4614C22C424A71A5BD07CF8209B
:10533000003A1AF80CF8873F3D6891275EB2D0F129
:10534000E1DB831679E2250B1D1F1E00000004FF20
:10535000FF00001815AE15DC16001581162F15205C
:1053600015A015C015A8167F15D5165015D91622EB
:1053700015DB163515B015DA161215A415A619FF8A
:105380001815A115C819FF1815A015C019FF181573
:10539000AF19FF1815AE19FF0001140A64646464A4
:1053A00000093D00000428960A10181850008000DB
:1053B000D05300080000002008000000982A0008D0
:1053C000D85300080800002008090000A82A000897
:0853D000001C4E0E000000005D
:04000005080001AD41
:00000001FF
